:10000000BFC10000EEC10000ECC10000EAC1000069
:10001000E8C10000E6C10000E4C10000E2C1000048
:10002000E0C10000DEC10000DCC10000DAC1000058
:10003000D8C10000D6C10000D4C10000D2C1000068
:10004000D0C10000CEC10000CCC10000CAC1000078
:10005000C8C10000C6C10000C4C100000C94D41D7A
:10006000C0C100000C94C90C0C949F0CBAC10000D4
:10007000B8C10000B6C10000B4C10000B2C10000A8
:10008000B0C10000AEC10000ACC10000AAC10000B8
:10009000A8C10000A6C10000A4C10000A2C10000C8
:1000A000A0C100009EC100009CC100009AC10000D8
:1000B00098C1000096C1000094C1000092C10000E8
:1000C00090C100008EC100008CC100008AC10000F8
:1000D00088C1000086C1000084C1000082C1000008
:1000E00080C10000FD0223039B03E603BF037704E6
:1000F000CB03C004C004C004C004C004C004BF02D9
:10010000C004C004C004C004C004C004C00411047E
:100110004704D104FA0440055E057805C605CE05FE
:10012000010690069D06C306F8066406CA07230862
:10013000E707FA07F2210722172217222522252294
:100140003A223A2207227A1C7D1C6C1C701C741CFB
:10015000B41C811C851C8B1C8F1C931C991C9D1C22
:10016000A11CB41CA71CAB1CAF1CF01CF51CFA1C7A
:10017000041D0E1D871D181D201D281D321D3C1D30
:10018000461D551D5F1D871D691D731D7D1D084A78
:10019000D73B3BCE016E84BCBFFDC12F3D6C74319B
:1001A0009ABD56833DDA3D00C77F11BED9E4BB4CF2
:1001B0003E916BAAAABE000000803F000D0A50537A
:1001C0003320426C7565746F6F7468204C6962727D
:1001D0006172792053746172746564000D0A4F5323
:1001E0004320646964206E6F7420737461727400BC
:1001F0000001020408090A0C0D0E0F0000000000A7
:100200000000000000FF27100032FF27100032FF1F
:1002100027100032FF27100032000000000000000D
:10022000000000000000000000000010000000209E
:1002300000000040000000800000000100000008F5
:1002400000000002000000040000000001000000A7
:100250000200000004000000080000001000000080
:1002600020000000400000008000000000010000AD
:100270000008000000100000002200250028002BCC
:10028000002E003100340002010000050108010BBE
:100290000100002100240027002A002D0030003337
:1002A0000001010000040107010A01050505050719
:1002B0000508080808020202020A0A0808040404E1
:1002C000040101010101010101030303030303030D
:1002D00003040707070C0C0C0C0C0C0C0C0202029C
:1002E0000206060606060606060B0B0B0B0B0B0B8F
:1002F0000B0102102020080810204010204080022E
:10030000010201080402010102040810204080805B
:1003100040201008040201800402018040201008DF
:1003200004020108040201010204081020408001B7
:100330000204081020408000000A0B02090C0D0E78
:100340000807030401000000000000000000000096
:10035000000000000000000000000000000000009D
:10036000000000121110000000000000000000005A
:100370000000000000000000000000000000F92262
:1003800011241FBECFEFD1E2DEBFCDBF00E00CBF16
:1003900025E0A4EDB2E001C01D92A23AB207E1F758
:1003A00012E0A0E0B2E0E0EAFDE400E00BBF02C032
:1003B00007900D92A43DB107D9F711E0C0ECD1E050
:1003C00000E006C021970109802FFE010E94AD26A2
:1003D000CF3BD10780E00807A9F70E94371E0C9495
:1003E000CE260ECEFC016C358AE0780729F4483E13
:1003F00091E2590749F42BC06D3085E0780721F46C
:100400004A3596E0590719F1848581110FC0858519
:1004100081110CC08685811109C08785811106C0B4
:100420008089811103C08189882379F06C347540FB
:1004300061F4483692E0590751F04F3284E0580792
:1004400031F081E0453D534019F080E0089581E0AE
:10045000089581E0603E09F080E008958D599F4F36
:10046000FC01808108958D5B9F4FFC018081089580
:10047000089581E0089580E0089580E0089508954A
:1004800080E0089580E008952F923F925F926F92EE
:100490007F928F929F92AF92BF92CF92DF92EF9214
:1004A000FF920F931F93CF93DF93CDB7DEB72897BB
:1004B0000FB6F894DEBF0FBECDBFFC01ED59FF4F64
:1004C0002081222309F408C66C010E94C81D860100
:1004D0000E5A1F4FD8018D909D90AD90BC90DC01BD
:1004E000CB0188199909AA09BB09B7FDF5C50E9476
:1004F000C81D1601B2E62B0E311CF101E080DC01B3
:10050000CB018E0D911DA11DB11DF801808391833A
:10051000A283B38380E490E09A8389835601F2E753
:10052000AF0EB11C96012D5B3F4F3E832D83C6015C
:100530008F5B9F4F98878F8385019E012F5F3F4F71
:10054000F601E95BFF4F4081AD81BE816C91FC01FA
:10055000808191810E94411A8B7F09F011C2D501DF
:10056000EC918E2F90E0FC013197E731F10508F016
:1005700007C28827EE58FF4F8F4F0C94AD26F60127
:10058000E958FF4F80818111FBC1860101591F4F3E
:10059000F801808191819C01216031832083D60103
:1005A000AB58BF4F2C91213061F411962C91203122
:1005B00009F0E6C112962C91D601D8962C9381644D
:1005C0002DC1293009F0DCC1D601AA58BF4F2C91AA
:1005D000203109F0D5C11296960122583F4F6D91F6
:1005E000AD014D565109FA016083A217B307B9F75F
:1005F0008162D8018D939C93C3C1F601EF58FF4FE0
:1006000080818530E8F0D601DB968C919601205CE4
:100610003F4F811104C0D9018C91882389F0108249
:10062000D601D9961C92D997DB961C92DB97DE9661
:100630001C92D9011C928AE0D601A659BF4F8C9317
:1006400080818F5F9CC1F601EC58FF4F0081002331
:1006500009F496C1F02EFF0CFF0CFF0C10E04601D0
:10066000B7E68B0E911CD601A859BF4F96012759AA
:100670003F4FA601405C5F4FC6018F0D911DBC012D
:100680006A587F4FFB01E080F401E0826F5F7F4F8B
:10069000FB0160816C9388589F4FFC018081F901B8
:1006A0008083F60193AD9923F1F081111CC0862F50
:1006B0008570C9F08E2D8C70B1F081E0EB59FF4F41
:1006C0008083F60126E0129FE00DF11D1124EB5806
:1006D000FF4FD6015496C6014A9621912D93A81733
:1006E000B907D9F71BC0FA0180818823F1F0862F62
:1006F0008570D9F08E2D887CC1F0F60126E0129F1E
:10070000E00DF11D1124EB58FF4FD6015496C601A0
:100710004A9621912D93A817B907D9F7F601E15907
:10072000FF4F80819181806879C01F5F83E0F80E60
:100730000113A2CF25C1F601E159FF4F208131817C
:10074000C901916091838083D601AC58BF4F8C91D1
:10075000811113C012968C918F7090E0982F88278A
:1007600011974C91842BD60153969C938E9352975C
:10077000226031603183208303C186E0FDC0F60131
:10078000EC58FF4F80818111FBC0359780819181AA
:100790008D7F846043C0F601EC58FF4F808181114A
:1007A000EFC03796960127563F4F8191DF01A25641
:1007B000B1098C93882319F02E173F07B1F7F60182
:1007C000E159FF4F80819181886028C0F601EC5883
:1007D000FF4FC60186589F4F2191DF01A156B109F5
:1007E0002C93E817F907C1F78081F601E959FF4F0B
:1007F0008083749690817397908374962081739709
:100800002083957029F0887C19F081E0F60187AF8C
:10081000F601E159FF4F808191818061918380834E
:10082000AFC0D601DB968C91882321F0C6010E94CF
:10083000EB1AA6C0F60182859385892BB9F78EE065
:10084000D5018C9384E0ED58FF4F808386E031968C
:100850008083F6018489EB58FF4F8083D60155963B
:100860008C91559731968083F6018689E958FF4F20
:10087000808357968C91579731968083F601808DAF
:10088000E758FF4F808359968C91319628C08CE0B1
:10089000F501808384E0F601ED58FF4F808386E008
:1008A00031968083D60154968C91549731968083EB
:1008B000F6018589EA58FF4F808356968C915697AA
:1008C00031968083F6018789E858FF4F80835896D8
:1008D0008C9131968083F601818DE658FF4F80839D
:1008E00049E050E0B501C6010E94781A49C0D6011E
:1008F000AC58BF4F8C9181111CC0D601DB968C91F6
:10090000DB97882349F0D9968C91D997811104C03F
:1009100081E0D9968C9334C0F601E05CFF4F808172
:10092000882371F1F60186AD81112AC081E086AF7E
:1009300027C0F60192898389E159FF4F20813181D7
:100940002B7F3183208326E0F501208324E0F6010C
:10095000ED58FF4F208323E02C93329690833196FD
:100960008F70808383E13196808346E050E0B5014B
:10097000C6010E94781A80E1F601E659FF4F808394
:10098000860106591F4FD8018C9190E08131910565
:1009900008F059C3FC018827E757FF4F8F4F0C948D
:1009A000AD267601BBE6EB0EF11CF701808191814B
:1009B00001969183808332962081318128173907EF
:1009C00008F041C332961182108283E0D5018C93E6
:1009D0008CE0349680833196108243E050E0B5017C
:1009E000C6010E94781A81E0F8018083D7011D9228
:1009F0001C9229C3F601E559FF4F80819181019630
:100A000091838083D601A159BF4F2C9120FF1BC039
:100A10001182108282E0F801808384E2D5018C93F8
:100A20008CE0F601ED58FF4F808383E031968083A0
:100A300084E03196808388E03196808331961082FD
:100A400046E050E036C0D601A359BF4F2D913C91EE
:100A500011972817390708F0F6C24AE0429FC001F3
:100A6000439F900D1124813D27E0920710F080ED07
:100A700097E08D939C93D8011C9211821082E3C25F
:100A8000F601E159FF4F8081918180FFDCC223E0B4
:100A9000D8012C938F7D9183808389E0F501808339
:100AA00080E1F601ED58FF4F80833196108243E0DC
:100AB00050E0B501C6010E94781AC5C2F601E1599D
:100AC000FF4F8081918185FFBEC28F7B91838083A0
:100AD00081E0D5018C9380E1349680833196108239
:100AE00043E050E0B501C6010E94781A84E0A9C233
:100AF000F601E159FF4F808186FFA5C2D601189605
:100B0000ED91FC911997309709F446C083E1D50126
:100B10008C938CE0D601AD58BF4F8C93DF010D90C4
:100B20000020E9F7C6018C589F4F2A2F2E1BDC01AD
:100B30002C9340E0242F30E0DF010D900020E9F7F6
:100B40001197AE1BBF0BC601820F931F2A173B07DD
:100B500050F48B589F4F2E0F3F1FD9012C91DC0171
:100B60002C934F5FE7CFDC01AB58BF4F1C92DF01E6
:100B70000D900020E9F7AD014E1B5F0B4D5F5F4FFD
:100B8000B501C6010E94781A85E05BC2F601E15901
:100B9000FF4F808180FF57C286E029C2F601E05CEA
:100BA000FF4F8081811105C0F60183AD882309F4D0
:100BB0001DC2F601E159FF4F808191818F779183AA
:100BC000808381E0D5018C9384E03496808385E036
:100BD0003196808383E3319680838BE831968083DE
:100BE0008EE93196808380E3319680838AE0319666
:100BF000808348E050E0B501C6010E94781A87E082
:100C000020C27601BFE6EB0EF11CF701808187FF61
:100C10001AC282E0D5018C934601B3E78B0E911C7A
:100C200084E0582EF40150823601F4E76F0E711CF7
:100C3000D3011C9243E050E0B501C6010E94781A2E
:100C4000F601EB59FF4F8081882309F467C0F70153
:100C500080819181877F9183808389E1D5018C9305
:100C6000F40150828AE0D3018C93F6018489EB5819
:100C7000FF4F8083D60155968C915597319680838E
:100C8000F6018689E958FF4F808357968C915797D4
:100C900031968083F601808DE758FF4F8083599607
:100CA0008C913196808381E03196808331961082D9
:100CB00031961082319610824DE050E0B501C601A8
:100CC0000E94781A8CE0BDC1960121593F4F3C83A8
:100CD0002B83D9016D907C9063FEB5C17601BAE19A
:100CE000EB0EF11C48E050E060E672E0C7010E94A4
:100CF000C026892B09F4C7C0F601E759FF4F808150
:100D0000882309F4F4C0F60183AD882309F409C1EE
:100D1000EB59FF4F8081882309F403C188E067C144
:100D2000F601E159FF4F808180FF8DC13A97108213
:100D3000C6010E94AD1A89E084C1F601E159FF4F56
:100D40008081918190FF7FC181FF19C081E1D50130
:100D50008C9384E03496808382E031968083F60120
:100D600092898389EB58FF4F908331968F708083EF
:100D700045E050E0B501C6010E94781A37C1C601AE
:100D80000E94AD1A60C1F60181AD81115CC183ADD5
:100D9000811159C186AD811156C1E05CFF4F808140
:100DA000811151C1BF96808191818F7E9183808313
:100DB0008AE1D5018C938CE03496808381E0319672
:100DC0008083F60180859185EB58FF4F892B11F0C8
:100DD00083E001C082E0808344E050E0B501C601B9
:100DE0000E94781A81E0D60114968C938BE029C179
:100DF000F601E159FF4F8081918184FF40C0D60107
:100E000014961C921497877F9183808389E1F50162
:100E1000808384E0F601ED58FF4F80838AE03196AD
:100E2000808354968C91549731968083F6018589FE
:100E3000EA58FF4F808356968C915697319680835F
:100E4000F6018789E858FF4F808358968C91319638
:100E50008083F601818DE658FF4F808381E03196D3
:100E600080833196108231961082319610824DE047
:100E700050E0B501C6010E94781A8CE0B8C082FF2C
:100E8000E2C080E1DEC055245394F60152AE14AEA8
:100E900015AE4601F4E68F0E911CD4011C9246E17A
:100EA00050E069E672E0C7010E94C026892B19F460
:100EB000F60154AE21CF46E150E060E872E0C70190
:100EC0000E94C026892B31F4D4015C92F60154AE05
:100ED00055AE12CF43E150E067E972E0C7010E94CE
:100EE000C026892B09F008CFD4015C9205CF319739
:100EF0008081853209F007CF31978081883009F0F1
:100F000002CF43E150E06BEA72E0C7010E94C026C5
:100F1000892B09F0F8CE81E0F601EA59FF4F808372
:100F2000F2CEE89461F8AB81BC816D927C9289E04D
:100F3000F501808384E0F601ED58FF4F808387E060
:100F400031968083D60154968C9154973196808344
:100F5000F6018589EA58FF4F808356968C91569703
:100F600031968083F6018789E858FF4F8083589631
:100F70008C9131968083F601818DE658FF4F8083F6
:100F8000319610824AE050E0B501C6010E94781AFD
:100F90008DE02DC0F601E159FF4F808181FF53C0E4
:100FA000D601AA59BF4F8C91882321F081E0D60148
:100FB000DE968C93D60115961C92159716961C9268
:100FC000169717961C92118210828FE03AC0F60194
:100FD000E559FF4F808191810196893E23E0920778
:100FE00018F4918380832FC0118210828AE0D80187
:100FF0008C9329C0F601E159FF4F808182FF23C005
:101000001182108280E4F501282F11922A95E9F7C8
:10101000F601EE54FF4FDF011D928A95E9F7F601C4
:1010200013AE12AE11AEEB59FF4F1082B59710827E
:10103000D601DF961C92DF97DE961C92B696108240
:101040008AE0F801808380E490E09A8389835601E6
:10105000F2EBAF0EB11CF601E65BFF4FD101EC9055
:1010600085019E012F5F3F4F4081ED81FE816081B0
:10107000AF81B8858D919C910E94411A0C55110940
:10108000F601E25AFF4F6F01811116C089819A81E2
:10109000892B91F07801D7018D919D917D01009769
:1010A00041F0DC01ED91FC910190F081E02DB50162
:1010B0001995EC14FD0479F7F801819191918F0154
:1010C000009739F0DC01ED91FC910280F381E02D75
:1010D00019950C151D0581F780E028960FB6F89438
:1010E000DEBF0FBECDBFDF91CF911F910F91FF905B
:1010F000EF90DF90CF90BF90AF909F908F907F90B8
:101100006F905F903F902F9008952F923F924F9253
:101110005F926F927F928F929F92AF92BF92CF9287
:10112000DF92EF92FF920F931F93CF93DF93CDB790
:10113000DEB7AE970FB6F894DEBF0FBECDBF3C0151
:10114000D22EFC01E95BFF4F20812CA710821C01ED
:1011500081E4280E311CD1010D911C912301B3E4CF
:101160004B0E511CD801ED91FC910190F081E02DC6
:10117000D2016C91C80119957C01892B11F486ED7F
:10118000A4C16CE271E080E090E00E94901DF20149
:10119000408160E0D1018D919C910E94A716B82EEC
:1011A000882319F0F701148287C1D70114961C9285
:1011B000D801ED91FC910190F081E02DD2016C916C
:1011C000C80119950097D9F2FC01D482C3018C5B48
:1011D0009F4F9BA78AA79C0141E0D2016C91F1012E
:1011E000808191810E94CB1BB82E811165C1430182
:1011F000F0E68F0E911CD4018D919C918C3495401A
:1012000089F48301025A1F4FF80180819181883649
:10121000F2E09F07C1F08F3224E09207A1F0853DF4
:10122000934089F0A12CF30132967F018E010F5E6D
:101230001F4F6301FEE5CF0ED11CC3018F5A9F4F94
:101240009EA78DA7E6C064E670E080E090E00E9473
:10125000901D21E0AAA5BBA54C91F2016081D101AE
:101260008D919C910E94AB1BB82E811125C1F30179
:101270008485811110C0858581110DC086858111FD
:101280000AC08785811107C08089811104C08189C6
:10129000882309F46AC0D8018D919C91A301445F11
:1012A0005F4F8836B2E09B0719F08F32944049F5C2
:1012B00081E089831A82D3015296CE0103962E9142
:1012C000FC012193CF014A175B07C9F71F921F92B8
:1012D000CE0101969F938F9358E0852E912C68E064
:1012E000A62EB12C73E0C72EE5EFEE2E09E021E229
:1012F000AAA5BBA54C91F2016081D1018D919C9171
:101300002EC085E0898380E1888781E0898782E03B
:101310008A8782E18B87FA01DE011296CE01089658
:1013200021912D938A179B07D9F71F921F92CE0107
:1013300001969F938F939BE0892E912C2BE0A22EF8
:10134000B12C33E0C32E45E0E42E09E021E2EAA50A
:10135000FBA54081D2016C91F101808191810E94B5
:10136000CF150F900F900F900F9020E0AAA5BBA56E
:101370004C91F2016081D1018D919C910E94AB1B37
:1013800040E0F2016081D1018D919C910E94A716ED
:10139000D301ED91FC910480F581E02DC3011995F5
:1013A00081ED93C0F401808191818C35FAE09F0733
:1013B000A1F5D6018D919C91883E9142B9F5E4E06A
:1013C000F2E0FA83E983FC82EB821E86188A1F868C
:1013D00019A21AA21BA219A61F830E8319870887B8
:1013E0008D818B878A871D870C879E012F5F3F4FDA
:1013F0004A2DD2016C91F101808191810E94E71BFD
:10140000B82E811159C0ADA5BEA58C91843098F439
:10141000A394BCA5AB12C6CF0EC08D30954031F45D
:10142000D6018D919C918A35964049F28AE092E0EE
:101430009A838983C8CFF301EF5AFF4F408144302C
:1014400088F12AA53BA5F2016081D1018D919C9183
:101450000E94CB1BB82E81112FC0F301E05BFF4F20
:101460002081EAA5FBA54081D2016C91F101808128
:1014700091810E94AB1BB82E81111EC0F301E3596C
:10148000FF4F84E690E0918380833297118210822F
:1014900031971082D30114961C92379781E0808394
:1014A00080E013C040E0F2016081D1018D919C91F8
:1014B0000E94A71681EDB82ED301ED91FC91048016
:1014C000F581E02DC30119958B2DAE960FB6F894DA
:1014D000DEBF0FBECDBFDF91CF911F910F91FF9067
:1014E000EF90DF90CF90BF90AF909F908F907F90C4
:1014F0006F905F904F903F902F900895CF93C62F9D
:101500004115510511F460E004C04130510529F442
:1015100061E00E944B1C60E007C04F3F5F4F41F409
:1015200060E00E944B1C61E08C2FCF910C944B1C0F
:10153000CF910895EF92FF920F931F93CF93DF9374
:10154000EC01AC014C5B5F4F80E090E0DA011C9253
:10155000382F811102C028E001C020E0FA01218368
:10156000FC01EE0FFF1FDF01A80FB91FAC0FBD1F5D
:10157000AA5BBF4F2C912E7F2D7F2C93311102C07F
:101580002FE001C021E0E80FF91FEC0FFD1FEA5B1F
:10159000FF4F220F220F30813370232B20830196BF
:1015A0004D5F5F4F8430910589F68E010A5A1F4FB7
:1015B0007E01FEE5EF0EF11CD8018D919D918D010C
:1015C000009739F0DC01ED91FC910480F581E02D6C
:1015D00019950E151F0581F719AE1AAE1EAE1FAE76
:1015E000FE01EA59FF4F1082B39710823E9681E0C8
:1015F000808331961082118212821382709610823B
:10160000CD59DF4F1882DF91CF911F910F91FF903D
:10161000EF900895CF93DF93EC018CDFFE01EF5B39
:10162000FF4F80819181CD5BDF4FDC01ED91FC911B
:101630000480F581E02D6881199580E0DF91CF91DC
:1016400008953F924F925F926F927F928F929F92F6
:10165000AF92BF92CF92DF92EF92FF920F931F93C0
:10166000CF93DF93CDB7DEB762970FB6F894DEBFA6
:101670000FBECDBF8C01462E342E522E5BDF3801BB
:1016800083E4680E711CD3018C91811173C05801E1
:10169000B1E4AB0EB11CF501C080D180D601ED9153
:1016A000FC910190F081E02D60E0C60119957C016C
:1016B000009709F461C0FC0180809180811491043D
:1016C00009F45CC0C8018C5B9F4F91838083548276
:1016D000BE016F5F7F4FD5018D919C910E94D11605
:1016E000582EF70191828082811135C0D601ED918B
:1016F000FC910280F381E02D232D40E0642DC60192
:101700001995F30180838823D9F19D81993091F057
:1017100032968885808332968A89808379968985F6
:101720009A859183808332978B859C859183808372
:1017300080EE27C040E0682FD5018D919C910E94DA
:10174000A716D801ED91FC910480F581E02DC80128
:10175000199581ED16C0BDE08B1711F081EE582E62
:10176000D801ED91FC910480F581E02DC801199517
:10177000852D07C089ED05C086ED03C087ED01C04A
:1017800084ED62960FB6F894DEBF0FBECDBFDF9139
:10179000CF911F910F91FF90EF90DF90CF90BF906E
:1017A000AF909F908F907F906F905F904F903F9001
:1017B0000895CF93DF93FC01DA018281882319F029
:1017C000813029F01FC03483238381E082838381A9
:1017D00094810097B1F02D913C911197232B91F0BA
:1017E000019794838383EB01888199810196998382
:1017F00088838D919C911197019711969C938E935C
:10180000E6CF128281E023813481232B09F080E02E
:10181000DF91CF9108952C9808952C9A0895EF9216
:10182000FF920F931F93CF93DF937B018A01E9010E
:10183000AC0163E070E082E090E060DEA70165E06B
:1018400070E084E090E05ADEA80167E070E086E096
:1018500090E054DEAE016EE270E08CE290E0DF9149
:10186000CF911F910F91FF90EF9048CE0F931F9350
:10187000CF93DF938C01EB0177FF0FC060E070E046
:10188000F80180810E94C91CBE01F8018281DF91AC
:10189000CF911F910F910C94C91CFC0180810E9473
:1018A000C91C60E070E0F80182810E94C91C209789
:1018B00029F3DF91CF911F910F91089508958EBD67
:1018C00000000DB407FEFDCF8EB508958CBD9DBD03
:1018D0000895CF92DF92EF92FF920F931F93CF93D1
:1018E000DF936C017A018B01C0E0D0E0CE15DF05FB
:1018F00081F0D8016D918D01D601ED91FC9101909F
:10190000F081E02DC6011995892B11F02196EECFBB
:101910007E01C701DF91CF911F910F91FF90EF9052
:10192000DF90CF9008950E94B5268AED92E00E9444
:10193000B01721E0892B09F420E0822F08951F922F
:101940000F920FB60F9211240BB60F922F933F9365
:101950004F935F936F937F938F939F93AF93BF93B7
:10196000EF93FF938AED92E00E948618FF91EF912A
:10197000BF91AF919F918F917F916F915F914F91A7
:101980003F912F910F900BBE0F900FBE0F901F90A5
:1019900018951F920F920FB60F9211240BB60F924B
:1019A0002F938F939F93EF93FF93E091EA02F0912F
:1019B000EB028081E091F002F091F10282FD12C011
:1019C00090818091F3028F5F8F732091F4028217D0
:1019D00051F0E091F302F0E0E652FD4F958F8093D5
:1019E000F30201C08081FF91EF919F918F912F9120
:1019F0000F900BBE0F900FBE0F901F90189580E0B8
:101A000090E00895CF93DF93EC011A821B821C8231
:101A10008D819E81DC01ED91FC910480F581E02DAA
:101A20006F8119951F821B8A80E0DF91CF91089505
:101A30006C34754061F4483692E0590751F04F32EA
:101A400084E0580731F081E0453D534019F080E0D3
:101A5000089581E00895FC0183890895FC01878140
:101A60000895CF92DF92EF920F931F93CF93DF935E
:101A70001F921F92CDB7DEB7FC012389222309F400
:101A800079C06C018281811104C08481882309F4AA
:101A900049C080E490E09A838983E12C8601065D49
:101AA0001F4F9E012F5F3F4FF6014685678185815D
:101AB00096810E94411A0E94C81DF6010489158969
:101AC00026893789DC01CB01801B910BA20BB30B5C
:101AD00085369105A105B1050CF44CC026A584A559
:101AE00095A5A0E0B0E0A22B808F918FA28FB38F3D
:101AF000448D558D668D778D84179507A607B7079A
:101B0000C9F14095509560957095482359236A23F3
:101B10007B2340A351A362A373A3848F958FA68FC9
:101B2000B78F28C08381882329F10E94C81DF60140
:101B30000489158926893789DC01CB01801B910B2B
:101B4000A20BB30B813A9F40A105B1059CF0860121
:101B500006591F4F27E030E0F601438567818581F4
:101B600096810E94751B0E94C81DF601648B758BBF
:101B7000868B978B80E00F900F90DF91CF911F9114
:101B80000F91EF90DF90CF9008953F924F925F9228
:101B90006F927F928F929F92AF92BF92CF92DF927D
:101BA000EF92FF920F931F93CF93DF93CDB7DEB7E2
:101BB0006D970FB6F894DEBF0FBECDBFDC01179650
:101BC000FC90F110F8C1922E342E862E3C01FC01BF
:101BD00005811681D801ED91FC910190F081E02DF5
:101BE00060E0C80119956C01009719F456EDF52EC7
:101BF000EAC1FC01A080B180A114B10409F4DEC1E6
:101C00002301F8E04F0E511CDC0111965C924E92BC
:101C100014969C92BE016F5F7F4FF3018581968180
:101C20000E94D116E82ED601AD92BC928111B9C1A5
:101C300089859A858C34954009F0B1C1AB84BC8408
:101C4000E8E6AE16E2E0BE0659F0FFE2AF16F4E0B9
:101C5000BF0631F025EDA21623E0B20609F09FC1C0
:101C6000D801ED91FC910280F381E02D232D40E01D
:101C7000682DC8011995F3018783882309F4A1C150
:101C800098859187482F60E0858196810E94A716EC
:101C9000E82ED801ED91FC91D60114961C92882370
:101CA00059F00480F581E02DD30117966C91C8019D
:101CB0001995F30117827DC10190F081E02DD301C8
:101CC00017966C91C8011995009709F48FCFFC0104
:101CD0009482920141E0D30117966C911797159663
:101CE0008D919C9116970E94CB1BE82E811159C1B2
:101CF00002E0F301038790E4948784E0858711E094
:101D000016879787808B920143E067818581968152
:101D10000E94CB1BE82E811144C168EC70E080E08A
:101D200090E00E94901D21E0D30118964C911897E5
:101D300017966C91179715968D919C9116970E9406
:101D4000AB1BE82E81112DC1F301E659FF4F2F0186
:101D5000F8E6AF16F2E0BF0649F02FE2A21624E043
:101D6000B20609F041C0F301148303C0D3011296F7
:101D70001C9382E48B8B8CE08C8B1D8A1E8A1F92B5
:101D80001F92CE0143969F938F9394E0892E912CBE
:101D900024E0A22EB12C33E0C32E44EFE42E09E060
:101DA00021E2D30118964C91189717966C911797CA
:101DB00015968D919C911697F2D6EBEFF1E0D2013A
:101DC000C30186569F4F0F900F900F900F90249154
:101DD0002D9331968A179B07D1F78FE7F30180ABDC
:101DE00081AB82AB83AB05C0D30113961C93F20188
:101DF0000083D30194968C919497811119C0959684
:101E00008C919597811114C096968C91969781111B
:101E10000FC097968C91979781110AC098968C91D4
:101E20009897811105C099968C91882309F460C018
:101E3000F3012381C3018496222391F125E02B8BAA
:101E400020E12A8F21E02B8F22E02C8F22E12D8FA1
:101E5000DC01FE017496CE014A962D912193E8177C
:101E6000F907D9F71F921F92CE0143969F938F9344
:101E7000BBE08B2E912C1BE0A12EB12C03E0C02ED9
:101E800085E0E82E09E021E2D30118964C911897DD
:101E900017966C91179715968D919C91169723C064
:101EA00021E02B8B1C8AF301BA96DE015596229114
:101EB0002D938E179F07D9F71F921F92CE0143963D
:101EC0009F938F9378E0872E912CE8E0AE2EB12C73
:101ED000F3E0CF2EA5EFEA2E09E021E2F3014085E1
:101EE0006781858196815BD60F900F900F900F9040
:101EF000D3015196ED91FC915297309711F01995BD
:101F000042C0F30183818823C9F08FEFE459FF4F6A
:101F100080833196108231961082820127E030E072
:101F2000D3011B964C911B9717966C91179715969A
:101F30008D919C9116970E94751B25C0E1EFF1E0F1
:101F4000E491D301AD58BF4FEF70EE0F8C91E82BA9
:101F5000EC931F921F925F924F9240E3842E912C3C
:101F600050E3A52EB12C62E0C62EEE24E39409E0E6
:101F700021E2F301408567818581968110D60F901B
:101F80000F900F900F9081E0D30153968C930E9495
:101F9000C81DF301648B758B868B978B14C031ED54
:101FA000E32ED301ED91FC910480F581E02DC30176
:101FB0001995FE2C08C029EDF22E05C097EDF92EDB
:101FC00002C084EDF82E8F2D6D960FB6F894DEBF0B
:101FD0000FBECDBFDF91CF911F910F91FF90EF907A
:101FE000DF90CF90BF90AF909F908F907F906F9039
:101FF0005F904F903F9008952F923F924F925F9243
:102000006F927F928F929F92AF92BF92CF92DF9208
:10201000EF92FF920F931F93CF93DF9300D01F9205
:10202000CDB7DEB76C017A8369835C834B834C0147
:1020300080E1880E911C5601A7E0AA0EB11C332442
:1020400033942601BBE04B0E511C3601E2E16E0ECB
:10205000711C83E0282E12E089819A81892B09F472
:10206000D6C0D60190968C91823061F128F48823F5
:1020700041F0813079F0F0CF833041F18430D1F1FB
:10208000EBCFF60114838581968190878783128731
:10209000118730A2AE014F5F5F4FBE016D5F7F4F72
:1020A000C5010E941519882309F4B1C0D6011596FF
:1020B000ED91FC911697808191968C9391978181F7
:1020C00092968C93F6017682658220A2D601929632
:1020D0008C919297843011F493961C92F60181A111
:1020E0008250848325813681308727838287818748
:1020F00084E080A3D60192968C918430B1F0853033
:1021000009F442C0823009F06BC0AE014F5F5F4FEF
:10211000BE016D5F7F4FC5010E941519882309F428
:1021200076C0F601858984A36AC0AE014F5F5F4F18
:10213000BE016D5F7F4FC5010E941519882309F408
:1021400066C0D60155968C9155978F3F09F057C0C0
:1021500056968C915697813009F051C098969C9173
:10216000989757968C91992321F0882309F447C0BA
:1021700003C0813009F043C0F60133A2928996A3CF
:10218000938997A385A33BC0AE014F5F5F4FBE010C
:102190006D5F7F4FC5010E9415198823C1F1D601DB
:1021A00093968C919397882351F112968D919C91DF
:1021B0001397009721F1DC01ED91FC910190F081E2
:1021C000E02D7401D60195960C91959797962C91D8
:1021D000979796964C91969794966C9119950FC0F7
:1021E000F60121A130E022503109AE014F5F5F4F6F
:1021F000BE016D5F7F4FC201DCDA882341F0D6015A
:1022000016969C928E92159790961C9225CF0F90C1
:102210000F900F900F90DF91CF911F910F91FF9032
:10222000EF90DF90CF90BF90AF909F908F907F9076
:102230006F905F904F903F902F9008952F923F9214
:102240004F925F926F927F928F929F92AF92BF92C6
:10225000CF92DF92EF92FF920F931F93CF93DF9372
:1022600000D01F92CDB7DEB76C017A8369835C839F
:102270004B834C0180E1880E911C5601A7E0AA0E09
:10228000B11C332433942601BBE04B0E511C3601A4
:10229000E2E16E0E711C83E0282E12E089819A81A2
:1022A000892B09F4D2C0D60190968C91823059F1D5
:1022B00028F4882341F0813079F0F0CF833039F170
:1022C0008430C9F1EBCFF601148385819681908724
:1022D00087831287118730A2AE014F5F5F4FBE0127
:1022E0006D5F7F4FC501A1D7882309F4AEC0D60129
:1022F0001596ED91FC911697808191968C9391970C
:10230000818192968C93F6017682658220A2D60115
:1023100092968C919297843011F493961C92F601C8
:1023200081A18250848325813681308727838287EB
:10233000818784E080A3D60192968C918430A9F0A5
:10234000853009F440C0823009F068C0AE014F5FAB
:102350005F4FBE016D5F7F4FC50167D7882309F4CA
:1023600074C0F601858984A368C0AE014F5F5F4FDA
:10237000BE016D5F7F4FC50158D7882309F465C042
:10238000D60155968C915597803E09F056C05696C9
:102390008C915697813009F050C098969C919897EF
:1023A00057968C91992321F0882309F446C003C0E5
:1023B000813009F042C0F60133A2928996A3938935
:1023C00097A385A33AC0AE014F5F5F4FBE016D5F1B
:1023D0007F4FC5012AD78823C1F1D60193968C91EE
:1023E0009397882351F112968D919C9113970097A2
:1023F00021F1DC01ED91FC910190F081E02D74015F
:10240000D60195960C91959797962C9197979696BD
:102410004C91969794966C9119950FC0F60121A155
:1024200030E022503109AE014F5F5F4FBE016D5F5A
:102430007F4FC201BED9882341F0D60116969C92E7
:102440008E92159790961C9229CF0F900F900F9017
:102450000F90DF91CF911F910F91FF90EF90DF9040
:10246000CF90BF90AF909F908F907F906F905F9034
:102470004F903F902F9008950895FA01DC01A05BE2
:10248000BF4F6C9323812370233051F4228127FFA7
:102490002FC017972C91237024602C9321E009C042
:1024A000223031F52281221F2227221F33E0321BE6
:1024B000232F30E0A901440F551F240F351F280F8B
:1024C000391FD901AC5BBF4F42814F704C931196BD
:1024D00044814C932681FC01EE59FF4F3081321725
:1024E00008F42083FC01EF5AFF4F80818F5F8083C7
:1024F00008952F923F924F925F926F927F928F92A8
:102500009F92AF92BF92CF92DF92EF92FF920F9382
:102510001F93CF93DF9300D01F921F92CDB7DEB7EA
:102520007D836C834A016901FB01F1808FEF8F0D80
:10253000803408F06CC00E94C81D2B013C01F8E8F3
:102540004F0EF3E15F1E611C711CEC81FD818281E5
:1025500080FD02C060E401C060E888EEEED6312C58
:102560008F2D90E09A838983C114D10409F442C06D
:10257000E980FA80CE14DF0408F47601EB82A8012A
:102580006E2D80E1B6D66E2D88E3D7D6EC81FD8125
:102590006081606280EFD1D688EC7BD687FFFCCF6C
:1025A00060E888ECCAD688EF74D68F70382EA12CDC
:1025B000B12C212C332009F461C00E94C81DDC011C
:1025C000CB0184199509A609B709B7FF57C0F6E0F2
:1025D0003F16F9F02EE0321609F44BC084E03812B1
:1025E00009C0FFEFAF1ABF0A8114910431F1A8149A
:1025F000B90419F588EF4DD685FB882780F9EC8161
:10260000FD81928180FB90F99283832D3CC08AEDFD
:102610003AC088EF3ED685FB882780F991E089276C
:10262000EC81FD81928180FB90F9928390FD02C044
:1026300060E401C060E888EE80D660E088E37DD683
:10264000F801608180E179D66B8188E376D6EC81F0
:10265000FD816081606280EF70D688EC1AD687FFBA
:10266000FCCF60E888EC69D688EF13D68F70382EDF
:10267000A1CF239423E02212E0CFBCCFCE18DF08F5
:102680000E0D1F1D71CF0F900F900F900F900F9098
:10269000DF91CF911F910F91FF90EF90DF90CF903E
:1026A000BF90AF909F908F907F906F905F904F9072
:1026B0003F902F9008952F923F924F925F926F928A
:1026C0007F928F929F92AF92BF92CF92DF92EF92C2
:1026D000FF920F931F93CF93DF93CDB7DEB7299768
:1026E0000FB6F894DEBF0FBECDBF1C016B015B833C
:1026F0004A835901D9016D907C901197FB01F181BA
:10270000F9831D921C92DB0112968C9181FD02C00F
:1027100060E101C060E288EE10D68E2D90E0A0E06E
:10272000B0E08C839D83AE83BF83462C2A813B819E
:10273000D6014C9160E0C10123D6F82EB6E08B1390
:1027400013C088EFA6D58295817091E08927F601A4
:10275000928180FB91F9928391FD02C060E101C0FA
:1027600060E288EEEAD5E2CF811164C088EC91D5B1
:1027700082FF5EC080E38DD5582E90E06816790602
:1027800008F4542CD5018D919C91F301E81BF90BB1
:10279000F987E887F7FF02C019861886852C912CE7
:1027A000288539858216930614F49986888680E5F3
:1027B00091E08CD830D888E082D84885598560E08F
:1027C00070E0C8010E94B92688859985009719F0A4
:1027D000BC01C80174D5A885B9850A0F1B1F1DD877
:1027E0006DD864E088ECA9D5F50180819181880ECF
:1027F000991E91828082F9815F1618F086149704E1
:1028000068F088EF46D582958170D60112969C912A
:10281000129780FB91F912969C930CC0EE2009F45C
:1028200085CF6C817D818E819F810E94901D7ECF9E
:1028300080EFF82E8F2D29960FB6F894DEBF0FBECD
:10284000CDBFDF91CF911F910F91FF90EF90DF905F
:10285000CF90BF90AF909F908F907F906F905F9040
:102860004F903F902F90089590E0FC01EF50FD4F66
:102870002491FC01E555FD4F8491882399F090E067
:10288000880F991FFC01EF56FD4FA591B491FC01F3
:10289000E958FD4F859194918FB7F894EC91E22B14
:1028A000EC938FBF0895880F991F880F991FFC0123
:1028B000EC7FF370E55DFD4F459155916591749105
:1028C0008091900390919103A0919203B091930312
:1028D000482359236A237B2381E0452B462B472B32
:1028E00009F480E00895009769F0FC010190002050
:1028F000E9F73197AF01481B590BBC018AED92E013
:102900000C94690C80E090E008958F929F92AF92B2
:10291000BF92CF92DF92EF92FF920F931F93CF93CC
:10292000DF93CDB7DEB7A1970FB6F894DEBF0FBE29
:10293000CDBF6C01990FEE08FF08F7FE29C06DE2CC
:102940008AED92E005D48C0122273327A9012C19A6
:102950003D094E095F0919A2CE0181967C019AE0DA
:10296000892E912CA12CB12CCA01B901A501940189
:102970000E948B26605DF70162937F01211531056E
:102980004105510589F7CF01AEDF800F911F1CC0B3
:10299000A701960119A28E010F5D1F4F8AE0C82E74
:1029A000D12CE12CF12CCA01B901A70196010E949A
:1029B0008B26605DF80162938F0121153105410579
:1029C000510589F7CF018FDFA1960FB6F894DEBFCE
:1029D0000FBECDBFDF91CF911F910F91FF90EF9070
:1029E000DF90CF90BF90AF909F908F9008957BCF56
:1029F000DF92EF92FF920F931F93CF93DF93EC013F
:102A0000E62EF12C85E0689FB0011124FE01E60F4F
:102A1000F71F8085182F177086FF17C001E085E02B
:102A2000D82EFE01D09EE00DF11D112480858695E3
:102A30008695869587701817F9F00F5F003189F732
:102A40008D81811302C011501D8385E08E9DF001A0
:102A50008F9DF00D1124EC0FFD1F108681E0818702
:102A600012862296D783C683DF91CF911F910F9153
:102A7000FF90EF90DF900895602FCE01B9DFD1CFA6
:102A80000F931F93CF93DF938C01C0E0D0E0F80148
:102A9000EC0FFD1F6491662339F08AED92E058D364
:102AA000892B11F02196F3CFCE01DF91CF911F91A9
:102AB0000F9108956F927F928F929F92AF92BF92E3
:102AC000CF92DF92EF92FF920F931F93CF93DF93FA
:102AD000EC01B62EA42E7901E1D26C01009709F425
:102AE0004AC0DC01ED91FC911197309709F445C083
:102AF00013969C9180E0981731F02081A21629F05E
:102B000033968F5FF8CFE0E0F0E0D701ED93FC93D0
:102B10003097A9F182818695869590E08031910564
:102B200014F08FE090E041E050E060E070E03A01A6
:102B30004B0104C0660C771C881C991C8A95D2F73F
:102B4000D401C3010197D8018D939C936B2D80EE26
:102B5000F4D388ED9ED3F6019481992331F0CA58BD
:102B6000DF4F68816260682B02C0682F697F88ED43
:102B7000E4D380E005C086ED03C087ED01C08BED96
:102B8000DF91CF911F910F91FF90EF90DF90CF9049
:102B9000BF90AF909F908F907F906F9008952F92ED
:102BA0003F924F925F926F927F928F929F92AF92DD
:102BB000BF92CF92DF92EF92FF920F931F93CF932A
:102BC000DF93CDB7DEB760970FB6F894DEBF0FBEC8
:102BD000CDBF3C01F42ED22E302E4EA05FA0188A1D
:102BE0001F861E861D868E01035F1F4F9E01215F7B
:102BF0003F4F60DF811192C0D9823A82EB82CC8252
:102C00001E821D82B886AF82AE014F5F5F4F68E0C3
:102C100080E26FD32D853E854F2D60E1C301B0D397
:102C2000E82E811177C08D2D8078382E4114510403
:102C300009F462C0EF85F8898281332009F44EC01F
:102C400082608283650122242394C114D10409F493
:102C500058C09C868B864D855E856F857889E12C72
:102C600082019E01255F3F4FC30125DDE82E96E0DE
:102C7000891311C00F85188988EF0BD385FB88272E
:102C800080F98225D80112969C91129780FB91F9C8
:102C900012969C93DACF81113DC0E8A5F9A5309733
:102CA000A1F00190F081E02D0190F081E02DC501AF
:102CB0008C199D099A8789876B857C859E01275F82
:102CC0003F4FA20188A599A519958B859C85C81AA7
:102CD000D90A8815990508F0B8CF0EC081608283A3
:102CE0004D855E8582019401BF01C30102DC811123
:102CF00015C02D853E8510C02D853E85311005C03F
:102D00000BC0E11007C02D853E8560EA4F2DC30141
:102D100037D304C08E2D02C060E8F8CF60960FB69E
:102D2000F894DEBF0FBECDBFDF91CF911F910F9101
:102D3000FF90EF90DF90CF90BF90AF909F908F90DB
:102D40007F906F905F904F903F902F9008958F925B
:102D50009F92AF92BF92CF92EF920F93CF931F9219
:102D60001F921F921F92812C912CA12CB12CC12C4F
:102D7000E42E05E020E040E012DFC82F6CE271E0B5
:102D800080E090E0CDD60F900F900F900F908C2F99
:102D9000CF910F91EF90CF90BF90AF909F908F9079
:102DA00008958F929F92AF92BF92CF92EF920F931E
:102DB0001F921F927F936F9322E1822E912C32E11A
:102DC000A32EB12CCC24C394E12C06E020E840E0F3
:102DD00060E0E5DE0F900F900F900F900F91EF9055
:102DE000CF90BF90AF909F908F900895CF92DF9239
:102DF000FF920F931F93CF93DF93F62ED0E0082F0F
:102E000010E0000F111F08581B4F6801D8018D9169
:102E10009C91DC01ED91FC910280F381E02D2F2D3E
:102E200040E060E01995803E49F461E088EE85D28B
:102E300066E670E080E090E073D607C08D3019F44C
:102E4000D33040F514C0811128C0F60180819181F2
:102E5000DC01ED91FC910190F081E02D2F2D40E0FF
:102E600060E01995C82F8D3049F4D33048F464E6FA
:102E700070E080E090E054D6DF5FC8CF882361F037
:102E800061E088EE5AD266E670E080E090E048D6D5
:102E90008C2F03C08DE001C080E0DF91CF911F91A6
:102EA0000F91FF90DF90CF90089588EFF2D1807C52
:102EB000803491F018F48823E1F00895803819F0F7
:102EC000803C99F0089588EDE4D181FD09C069EC5A
:102ED00088ED33D282E00AC088EDDBD181FDF7CFE7
:102EE0006BEC88ED2AD283E001C081E08093D902A7
:102EF000089561ED88ED21D21092D9020895FC0168
:102F0000538D448D252F30E0842F90E0821B930B4E
:102F1000541710F0CF96089501970895FC01918DF4
:102F2000828D981761F0828DDF01A80FB11D5D962B
:102F30008C91928D9F5F9F73928F90E008958FEF99
:102F40009FEF0895FC01918D828D981731F0828D4D
:102F5000E80FF11D858D90E008958FEF9FEF0895A4
:102F6000FC01918D228D892F90E0805C9F4F821B08
:102F700091098F739927089580E090E0892B21F0C3
:102F80000E94950C811125C080E090E0892B41F0D2
:102F900080E090E0892B21F00E94000081111CC08C
:102FA00080E090E0892B41F080E090E0892B21F0D7
:102FB0000E940000811113C080E090E0892BA1F0F5
:102FC00080E090E0892B81F00E94000081110AC00E
:102FD00008950E940000D8CF0E940000E1CF0E9417
:102FE0000000EACF0C9400000895CF93DF93FC011A
:102FF000862F8078A9F4283008F04DC0442321F0B2
:103000009581973009F447C0EF01A1E0B0E09D85BC
:10301000992341F011962596A031B105C1F73BC027
:1030200080E039C061111CC085E08A9FE0018B9F60
:10303000D00D1124CE0FDF1F442331F081E48887A7
:1030400085818F5F858302C081E0888725E02A9F84
:10305000C0012B9F900D1124E80FF91F80851BC024
:103060006770660F660F660F442341F060648581C8
:103070008F5F85838770687F682B03C02770687BAC
:10308000622B25E02A9FC0012B9F900D1124E80F91
:10309000F91F6087862FDF91CF910895611102C0DB
:1030A00006960895FC0121E03585631739F02F5FFE
:1030B00035962031C9F780E090E00895069635E016
:1030C000239F800D911D11240895FC01613499F412
:1030D0009C01255B3F4F61E0AC014E5F5F4F158661
:1030E00066871786548743873596E217F307B9F743
:1030F000FC011582089521E03585631729F02F5FC3
:1031000035962031C9F70895622F72CCFC01848D69
:10311000DF01A80FB11DA35ABF4F2C91848D90E001
:1031200001968F739927848FA689B7892C93A089DC
:10313000B1898C91837080648C93938D848D981366
:1031400006C00288F389E02D80818F7D80830895F9
:10315000EF92FF920F931F93CF93DF93EC0181E0E7
:10316000888F9B8D8C8D981305C0E889F9898081A3
:1031700085FD25C0F62E0B8D10E00F5F1F4F0F73DE
:103180001127E02E8C8DE8120BC00FB607FCFACF8A
:10319000E889F989808185FFF5CFCE01B7DFF2CFCD
:1031A0008B8DFE01E80FF11DE35AFF4FF0829FB7B0
:1031B000F8940B8FEA89FB89808180620AC09FB7EF
:1031C000F894EE89FF896083E889F98980818370AA
:1031D000806480839FBF81E090E0DF91CF911F9159
:1031E0000F91FF90EF900895CF93DF93EC01888DBE
:1031F0008823C1F0EA89FB89808185FD05C0A88903
:10320000B9898C9186FD0EC00FB607FCF5CF808181
:1032100085FFF2CFA889B9898C9185FFEDCFCE01CA
:1032200075DFE8CFDF91CF910895CF93DF93FC0155
:10323000EB0180819181892B21F18281882319F111
:10324000DA012D913C91232BE1F0A881B9819C9169
:10325000A381B0E0A81BB10920813181A20FB31F67
:103260009C93828181508283DA018D919C91119788
:1032700001978D939C938881998101969983888386
:10328000DCCF80E003C08381828381E0DF91CF9136
:103290000895CF93C82F80E591E00E94660C0E94AC
:1032A0000B0C8C2F0E945F0C80E00E945F0CC82FDB
:1032B0000E940D0C0E945E0C8C2FCF910895FC0192
:1032C00020812EBD9B012150310941F051810DB467
:1032D00007FEFDCF4EB55EBD4193F5CF615071093C
:1032E000FC01E60FF71F0DB407FEFDCF8EB58083FE
:1032F00008950F931F93CF93DF93C82FD62F8A0182
:1033000080E591E00E94660C0E940B0C8C2F82607D
:103310000E945F0CCD2FD0E0209719F0BE01C801AC
:10332000CEDFC00FD11F0E940D0C0E945E0CCE019B
:10333000DF91CF911F910F9108950F931F93CF931A
:10334000DF931F921F92CDB7DEB7182F062F80E5AF
:1033500091E00E94660C0E940B0C126019830A8394
:1033600062E070E0CE010196AADF0E940D0C0E947F
:103370005E0C0F900F90DF91CF911F910F910895E8
:103380008F929F92AF92BF92CF92DF92EF92FF9275
:103390000F931F93CF93DF93862E942E5901F8D36A
:1033A0006B017C0128E8C20E23E1D21EE11CF11C56
:1033B00000E010E0D0E0C0E09828EAD3DC01CB01C7
:1033C0008C199D09AE09BF09B7FF28C0692D80EF90
:1033D000B4DFDED3DC01CB018C199D09AE09BF0936
:1033E000B7FF07C088EC55DF87FFF3CF60E888ECB4
:1033F000A4DF88EF4EDFC82FCF70C43019F0CE3075
:1034000051F00CC00F5F1F4FA114B104B1F20A15A7
:103410001B0599F603C0DF5FD33079F68C2FDF915F
:10342000CF911F910F91FF90EF90DF90CF90BF90C1
:10343000AF909F908F9008953FB7F89480919E052C
:1034400090919F05A091A005B091A10526B5A89BDC
:1034500005C02F3F19F00196A11DB11D3FBFBA2F26
:10346000A92F982F8827820F911DA11DB11DBC0186
:10347000CD0142E0660F771F881F991F4A95D1F74B
:1034800008958F929F92AF92BF92CF92DF92EF9268
:103490000F931F93CF93DF9300D01F92CDB7DEB76A
:1034A0006C01590148011C821B821A8219828E010B
:1034B0000F5F1F4F9E012D5F3F4FFCDA811108C047
:1034C00049815A816B817C8184019501C601F3D8C1
:1034D0000F900F900F900F90DF91CF911F910F9150
:1034E000EF90DF90CF90BF90AF909F908F90089516
:1034F0008F929F92AF92BF92CF92EF920F93CF9302
:10350000DF93FC01E159FF4F208131812E7F318310
:103510002083DC01AC5BBF4FBC97EC01CF5BDF4F7E
:103520001F921F927F936F934A015A01C12CE12C85
:1035300000E020E24C9160818881998130DB0F901E
:103540000F900F900F90DF91CF910F91EF90CF9050
:10355000BF90AF909F908F900895FC01DC01A1591E
:10356000BF4F8D919C9111978D7F9E7F8D939C93E2
:10357000BF016E587F4F85E0DB018C93119684E08C
:103580008C9311968DE08C93119684898C9311966F
:1035900085898C93119686898C93119687898C9353
:1035A0001196808D8C931196818D8C93119688E164
:1035B0008C9311968CEC8C93119681E08C931196E0
:1035C0001C9211961C9211961C9211961C9240E12D
:1035D00050E0CF018DCFCF93DF93FC01BC016E583B
:1035E0007F4F8DE0DB018C93119684E08C931196D4
:1035F00087E18C93119684898C93119685898C939D
:10360000119686898C93119687898C931196808D5B
:103610008C931196818D8C9323ADCF0185589F4F4C
:10362000222361F126E0EC01288356978C918823B0
:1036300099F0A855B109CF0142962D91ED01C159DC
:10364000DF4F2883A817B907C1F7DF01AE57BF4F77
:10365000CF0184579F4F0DC0DF015496CF014A968A
:103660002D91ED01C959DF4F2883A817B907C1F77C
:10367000ECCF1D928A179B07E1F731C0A285B38575
:10368000ED0109900020E9F72197AE014A1B5B0B81
:10369000EC01488380E0282F30E0ED010990002004
:1036A000E9F72197CA1BDB0B2C173D0770F4EF01DC
:1036B000C20FD31FAE0144585F4F2A0F3B1FE901D1
:1036C0009881EA0198838F5FE6CF803140F4DF0173
:1036D000A80FB11DA458BF4F1C928F5FF6CF4AE1CF
:1036E00050E0CF01DF91CF9103CFAF92BF92CF9245
:1036F000DF92EF92FF920F931F93CF93DF9300D04F
:103700001F92CDB7DEB77C01690158011C821B8274
:103710001A8219828E010F5F1F4F9E012D5F3F4F4E
:10372000C9D9811109C049815A816B817C81850188
:103730009601C7010E9479120F900F900F900F9081
:10374000DF91CF911F910F91FF90EF90DF90CF907D
:10375000BF90AF9008958F929F92AF92BF92CF92F9
:10376000EF920F931F921F921F921F92812C912C08
:10377000A12CB12CC12CE22E09E020E010DA0F9030
:103780000F900F900F900F91EF90CF90BF90AF9050
:103790009F908F9008950F931F93CF93DF932115E0
:1037A000310569F0E901042F162F78DCFC01892B23
:1037B00041F01283D183C083038380E003C088ED8E
:1037C00001C086EDDF91CF911F910F9108953F9237
:1037D0004F925F926F927F928F929F92AF92BF9221
:1037E000CF92DF92EF92FF920F931F93CF93DF93CD
:1037F000CDB7DEB7C054D1090FB6F894DEBF0FBE07
:10380000CDBF3C01162FD22E332E1F921F92CE0118
:1038100001962C019F938F9399E0892E912C29E09A
:10382000A22EB12C32E0C32EE42E06E020E840E0C8
:10383000C301B5D90F900F900F900F90811112C056
:10384000AB80BC803F92DF925F924F9280E4882EE3
:10385000912C20E840E0612FC301A1D90F900F9077
:103860000F900F90C05CDF4F0FB6F894DEBF0FBE15
:10387000CDBFDF91CF911F910F91FF90EF90DF901F
:10388000CF90BF90AF909F908F907F906F905F9000
:103890004F903F900895362F90E0FC01E95CFC4F7B
:1038A0004491FC01EF50FD4F2491FC01E555FD4F83
:1038B0009491992309F46CC0442309F455C050E055
:1038C000FA013197E231F10508F04EC08827ED5535
:1038D000FF4F8F4F0C94AD26809180008F7707C0EB
:1038E000809180008F7D03C080918000877F8093CE
:1038F00080003AC084B58F7702C084B58F7D84BDC7
:1039000033C08091B0008F7703C08091B0008F7D6D
:103910008093B00029C0809190008F7707C080917C
:1039200090008F7D03C080919000877F80939000EE
:103930001BC08091A0008F7707C08091A0008F7D71
:1039400003C08091A000877F8093A0000DC080916C
:1039500020018F7707C0809120018F7D03C0809167
:103960002001877F80932001E92FF0E0EE0FFF1FF9
:10397000E958FD4FA591B4919FB7F894311104C057
:103980008C912095282302C0EC912E2B2C939FBF65
:1039900008951F93CF93DF93182FEB010E943414E7
:1039A000209711F460E004C0CF3FD10531F461E00D
:1039B000812FDF91CF911F916ECFE12FF0E0E95C75
:1039C000FC4FE4918E2F90E0FC013197E231F1053C
:1039D00008F09DC08827EB54FF4F8F4F0C94AD2605
:1039E00084B5806884BDC7BD97C084B5806284BD3E
:1039F000C8BD92C080918000806880938000D09381
:103A00008900C093880088C0809180008062809384
:103A10008000D0938B00C0938A007EC0809180008C
:103A2000886080938000D0938D00C0938C0074C018
:103A30008091B00080688093B000C093B3006CC0E8
:103A40008091B00080628093B000C093B40064C0E5
:103A500080919000806880939000D0939900C093EB
:103A600098005AC080919000806280939000D0931B
:103A70009B00C0939A0050C0809190008860809312
:103A80009000D0939D00C0939C0046C08091A00000
:103A900080688093A0008091A0008F7B8093A0001D
:103AA000D093A900C093A80037C08091A000806285
:103AB0008093A000D093AB00C093AA002DC080914A
:103AC000A00088608093A000D093AD00C093AC00AC
:103AD00023C080912001806880932001D093290128
:103AE000C093280119C08091200180628093200139
:103AF000D0932B01C0932A010FC0809120018860D0
:103B000080932001D0932D01C0932C0105C0C038B3
:103B1000D1050CF04CCF46CFDF91CF911F91089586
:103B20008F929F92AF92BF92CF92DF92EF92FF92CD
:103B30006B017C0181DC4B015C01C114D104E10407
:103B4000F104E9F079DCDC01CB0188199909AA09B3
:103B5000BB09883E9340A105B10578F321E0C21A64
:103B6000D108E108F10888EE880E83E0981EA11CB8
:103B7000B11CC114D104E104F10421F7DECFFF90A0
:103B8000EF90DF90CF90BF90AF909F908F9008956F
:103B90002FB7F89460919A0570919B0580919C05D0
:103BA00090919D052FBF08951F920F920FB60F920F
:103BB00011242F933F938F939F93AF93BF93809143
:103BC0009A0590919B05A0919C05B0919D0530911F
:103BD000990523E0230F2D3720F40196A11DB11D77
:103BE00005C026E8230F0296A11DB11D209399055B
:103BF00080939A0590939B05A0939C05B0939D0597
:103C000080919E0590919F05A091A005B091A1057E
:103C10000196A11DB11D80939E0590939F05A093D1
:103C2000A005B093A105BF91AF919F918F913F9156
:103C30002F910F900FBE0F901F901895EF92FF924B
:103C4000A701211105C00297FF90EF900C943D123F
:103C5000FF90EF900895EF92FF92A701211104C009
:103C6000FF90EF900C943D12FF90EF900895CF934A
:103C7000DF93CDB7DEB7A7970FB6F894DEBF0FBEC0
:103C8000CDBF789484B5826084BD84B5816084BDE5
:103C900085B5826085BD85B5816085BD80916E00EA
:103CA000816080936E00109281008091810082601B
:103CB0008093810080918100816080938100809158
:103CC00080008160809380008091B1008460809347
:103CD000B1008091B00081608093B000809191002C
:103CE0008260809391008091910081608093910027
:103CF000809190008160809390008091A10082600B
:103D00008093A1008091A10081608093A1008091A7
:103D1000A00081608093A000809121018260809347
:103D200021018091210181608093210180912001F6
:103D300081608093200180917A00846080937A0072
:103D400080917A00826080937A0080917A0081600D
:103D500080937A0080917A00806880937A00109234
:103D6000C100E091EA02F091EB0282E08083E091F1
:103D7000E602F091E7021082E091E802F091E90298
:103D800080E180831092F202E091EE02F091EF0266
:103D900086E08083E091EC02F091ED028081806109
:103DA0008083E091EC02F091ED0280818860808355
:103DB000E091EC02F091ED02808180688083E091D7
:103DC000EC02F091ED0280818F7D8083249A0E9425
:103DD0000D0C1FB7F8948091D402811123C0E0EE3E
:103DE000F2E08491E6E2F3E09491E82FF0E0EE0F48
:103DF000FF1FEF56FD4FA591B491EC91E92319F403
:103E000061E085E348DD85E30E9434148CB5806170
:103E10008CBD8CB580648CBD84E30E94341483E334
:103E20000E9434148091D4028F5F8093D4021FBF0C
:103E3000209A289A809101018F7B8093010168E18B
:103E400088E87BDA60E288E778DA60E088E775DAAC
:103E500000E010E088E61DDA0F5F1F4F80FD09C00B
:103E60000F3F2FEF1207B1F78CED91E00E94401544
:103E7000FFCF61EC88ED61DA60E680ED5EDA64E048
:103E800088EE5BDA88EE05DA82FFFCCF0ED860E2BE
:103E900088EC53DA61E080E850DA8CEB91E00E9424
:103EA000401582E00E94341483E00E94341484E0C0
:103EB0000E94341485E00E94341486E00E94341479
:103EC00087E00E9434148CE20E9434148EE20E9437
:103ED000341482E090E09C8B8B8BA3E0B0E0BE8B2F
:103EE000AD8BE4E0F0E0F88FEF8B25E030E03A8F27
:103EF000298F86E090E09C8F8B8FA7E0B0E0BE8F8B
:103F0000AD8FECE2F0E0F8A3EF8F8EE290E09AA3A1
:103F100089A38091000186FD0BC088ECBAD985FF8A
:103F200004C00E94551760E201C060E088EC05DA29
:103F30008091D902813041F048F0823081F08330A5
:103F400039F5992493940CC083E106C080917703DE
:103F5000807F8031E9F081E18093770319C0912C53
:103F600080917703807F8031A1F412DEDC01CB01E8
:103F700088539F4FAF4FBF4F8093D5029093D60287
:103F8000A093D702B093D80280E28093770301C058
:103F9000912C08E714E07801D7018D919D917D0166
:103FA000009739F0DC01ED91FC910680F781E02D5E
:103FB0001995B8E9EB16B4E0FB0671F78091770329
:103FC000803409F441C050F4803229F18033B9F1D2
:103FD000813109F023C1109298040AC0813509F497
:103FE00055C0803809F466C0803509F017C138C063
:103FF000F801819191918F01009739F0DC01ED91E9
:10400000FC910480F581E02D1995B4E008391B0777
:1040100079F782E101C1BCDD0091D5021091D60291
:104020002091D7023091D802DC01CB01801B910B8B
:10403000A20BB30BB7FDF2C080E38093770361E07E
:1040400088EE7BD980E4E8C088EE23D980FDE6C005
:1040500088ED1FD9682F686088ED6FD980E5DCC0D6
:1040600088EC17D986FFDAC081E58093770390DD6D
:10407000DC01CB014496A11DB11D8093D502909324
:10408000D602A093D702B093D802C8C081DDC090F9
:10409000D502D090D602E090D702F090D802DC0191
:1040A000CB018C199D09AE09BF09B7FDB7C080E8E7
:1040B000809377031BA288E08CA38CE38DA388E216
:1040C00094E0892B09F4A5C0E0902804F09029041D
:1040D000E3E2F0E0EC0FFD1FF0932904E0932804E5
:1040E00090922C04BE016F5F7F4F82E294E00E94A9
:1040F000D116F0922904E0922804811186C0C98467
:10410000DA84AB84BC847D806E8048E7E42E44E092
:10411000F42E812CD7018D919C910097C1F1DC0187
:10412000ED91FC910084F185E02D199581112FC04E
:10413000F70180819181DC01ED91FC910088F1898A
:10414000E02D662D1995882311F1F7018081918169
:10415000DC01ED91FC910484F585E02DA501B6010B
:10416000199581110DC0F70180819181DC01ED91DC
:10417000FC910684F785E02D672D1995882339F089
:10418000692D882D0E94F616813D09F03EC083946A
:10419000F2E0EF0EF11C20E18212BCCFF12CF8010D
:1041A00080819181009709F0E9C1F3940E5F1F4F60
:1041B00030E1F312F4CF8091280490912904892BE7
:1041C00041F190922C0420E040E060E082E294E033
:1041D0000E94F517182F8823E1F0682F82E294E0FF
:1041E0000E944E180097A9F0FC019482412F60E0D4
:1041F00082E294E00E94A716082F882361F0612FC5
:1042000082E294E00E946518802F882321F0823D8D
:1042100029F080EA01C080E98093770380917A03D6
:10422000811105C080917C03882309F4A4C1E0902A
:10423000A803F12CA090A903B12CC70101971C0180
:10424000220C331C0FE711E00A191B09000F111F84
:10425000E114F10411F481E090E06C01CC0CDD1C60
:104260008FEB92E00E94F714C7010E94851483EC43
:1042700092E00E94F71485EC92E00E94F714C501C9
:104280000E94851483EC92E00E94F71480EC92E087
:104290000E94F714C1010E94851483EC92E00E94F1
:1042A000F71486EC92E00E94F714C8010E9485146E
:1042B00083EC92E00E94F71489EC92E00E94F714DC
:1042C000C6010E94851483EC92E00E94F7148DECE5
:1042D00092E00E94F714C8010E94851481ED92E0DB
:1042E0000E947314E090A803F12CF0E8EF1AF10893
:1042F0008091A90320E830E05901A81AB108B7015C
:104300000F2C000C880B990B91D22B013C01B501AD
:104310000B2C000C880B990B89D2A30192010DD4B0
:1043200020E030E044E353E4E0D22BED3FE049E409
:1043300050E456D4F7FE03C0F194E194F10821E172
:10434000E216F10454F4B7FE03C0B194A194B1088D
:1043500031E1A316B1040CF445C020E030E044E3A1
:1043600053E478D34B015C011FA21EA2E12CF12C77
:10437000B7010F2C000C880B990B58D220E030E0CD
:1043800044E352E4B2D22B013C0120E030E0A90129
:1043900061D39B01AC01C501B401AFD4D701119623
:1043A0007D0187FD10C020E030E044E352E4C3010A
:1043B000B20150D39B01AC01C501B40131D287FFDA
:1043C00002C0FFA2EEA2B8E0EB16F10489F6EEA15E
:1043D000FFA1E930F10508F065C08827E656FF4FD8
:1043E0008F4FBBC460E070E0CE0143960E94360C54
:1043F00060E070E0CE0147960E94360C60E070E00D
:10440000CE014B960E94360C60E070E047C000275A
:1044100011270C191D09B801CE0143960E94360CD4
:10442000B601CE0147960E94360CB60132C0B801E3
:10443000CE0143960E94360CB801CE0147960E94E9
:10444000360C11950195110923C0B101CE01439697
:104450000E94360C0027112702191309B801CE015A
:1044600047960E94360CB801CE014B960E94360C3E
:10447000B10114C0EE24FF24E01AF10AB701CE0105
:1044800043960E94360CB701CE0147960E94360C27
:10449000B801CE014B960E94360CB801CE014F9662
:1044A0000E94360C81E090E00E945314882349F06A
:1044B00021E030E041E050E061E070E081E090E038
:1044C0000EC083E090E00E945314882359F02FEF30
:1044D0003FEF4FEF5FEF6FEF7FEF8FEF9FEF0E94A8
:1044E0000F0C49C08CE090E00E945314882339F0EF
:1044F0006EE170E089E04DDA60E070E00CC08EE0C3
:1045000090E00E945314882349F060E070E089E055
:1045100040DA6EE170E08AE03CDA2DC08DE090E098
:104520000E945314882329F061E08BE0B4D960E045
:104530000AC08FE090E00E945314882331F060E0BD
:104540008BE0A9D961E08CE015C020E030E040E0CC
:1045500050E060E070E080E090E00E940F0C60E0CE
:104560008BE099D960E08CE096D960E089E093D93E
:1045700060E08AE090D90E94BC17ABCCDC01ED91E1
:10458000FC910084F185E02D199581110ECEF80182
:1045900080819181DC01ED91FC910088F189E02D11
:1045A000662D19958823D9F0F80180819181DC016D
:1045B000ED91FC910484F585E02DA501B6011995D6
:1045C0008111F3CDF80180819181DC01ED91FC91A5
:1045D0000684F785E02D672D19958111E6CD692DAB
:1045E0008F2D0E94F616982F977F913D09F00DCEE2
:1045F000DCCD1092DD021092DC0288EE93E0A0E0A8
:10460000B0E08093DE029093DF02A093E002B093CB
:10461000E10280E192E09093DB028093DA0285EC84
:1046200090E09093E7028093E60284EC90E0909310
:10463000E9028093E80280EC90E09093EB02809393
:10464000EA0281EC90E09093ED028093EC0282EC20
:1046500090E09093EF028093EE0286EC90E09093CE
:10466000F1028093F0021092F3021092F402109281
:10467000F5021092F6028AE592E09093230480936B
:1046800022041092270410922A0481E080932B04C4
:1046900010922C0484E294E09093290480932804DF
:1046A0001092240488E0809325048CE380932604F0
:1046B000E2E2F4E021E084E294E0158626871786A2
:1046C00094878387359634E0ED36F307B1F710927F
:1046D000980481E1809377038AE392E090939A04AF
:1046E0008093990484E592E090939C0480939B04CA
:1046F0001092D2041092D4041092D7041092D904CC
:1047000082E294E09093DB048093DA041092DC045C
:1047100081E08093EA041092EB041092EC04109272
:10472000ED041092EE041092FB041092FC0410921F
:10473000F0041092EF041092F2041092F10410921F
:10474000F4041092F3041092F6041092F50489E92F
:1047500094E00E949A0AE091DA04F091DB04309729
:10476000B9F0DF01AA5ABF4F80E090E02D913D9152
:10477000232B51F48B96880F991FE80FF91F89E9B5
:1047800094E09183808304C001968031910571F794
:1047900082E292E0909379038093780382E294E03E
:1047A00090937E0380937D0310927F0310928B037E
:1047B0001092800388E0809381038CE380938203CE
:1047C000109283031092840384E0809385031092F7
:1047D00086031092870380938803E8E7F4E080E083
:1047E00090E021913191232B51F4880F991FFC0106
:1047F000E858FB4F88E793E09183808304C00196DB
:104800008031910571F71092A1031092A0031092CC
:104810009F0310929E0310929D0310929C03089593
:1048200040D008F481E00895E89409C097FB3EF475
:1048300090958095709561957F4F8F4F9F4F9923ED
:10484000A9F0F92F96E9BB279395F695879577956B
:104850006795B795F111F8CFFAF4BB0F11F460FF2B
:104860001BC06F5F7F4F8F4F9F4F16C0882311F083
:1048700096E911C0772321F09EE8872F762F05C097
:10488000662371F096E8862F70E060E02AF09A9532
:10489000660F771F881FDAF7880F9695879597F927
:1048A0000895990F0008550FAA0BE0E8FEEF1616C1
:1048B0001706E807F907C0F012161306E407F50714
:1048C00098F0621B730B840B950B39F40A2661F088
:1048D000232B242B252B21F408950A2609F4A1402B
:1048E000A6958FEF811D811D08950BD078C069D0EA
:1048F00028F06ED018F0952309F05AC05FC011243B
:10490000A2C07ED0A0F3959FD1F3950F50E0551F24
:10491000629FF001729FBB27F00DB11D639FAA2714
:10492000F00DB11DAA1F649F6627B00DA11D661F63
:10493000829F2227B00DA11D621F739FB00DA11D84
:10494000621F839FA00D611D221F749F3327A00D3E
:10495000611D231F849F600D211D822F762F6A2FDA
:1049600011249F5750408AF0E1F088234AF0EE0F5F
:10497000FF1FBB1F661F771F881F91505040A9F76C
:104980009E3F510570F014C05EC05F3FECF3983E4F
:10499000DCF3869577956795B795F795E7959F5FD3
:1049A000C1F7FE2B880F911D9695879597F908956D
:1049B00097F99F6780E870E060E008959FEF80ECD2
:1049C000089500240A941616170618060906089575
:1049D00000240A9412161306140605060895092EDB
:1049E0000394000C11F4882352F0BB0F40F4BF2B4A
:1049F00011F460FF04C06F5F7F4F8F4F9F4F08958A
:104A000057FD9058440F551F59F05F3F71F047957F
:104A1000880F97FB991F61F09F3F79F08795089564
:104A2000121613061406551FF2CF4695F1DF08C083
:104A3000161617061806991FF1CF869571056105A0
:104A400008940895E894BB2766277727CB0197F948
:104A500008955058BB27AA270ED0C1CFB2DF30F03F
:104A6000B7DF20F031F49F3F11F41EF4A7CF0EF40E
:104A7000E095E7FB9DCFE92FC3DF80F3BA1762070C
:104A800073078407950718F071F49EF5DBCF0EF4D9
:104A9000E0950B2EBA2FA02D0B01B90190010C014E
:104AA000CA01A0011124FF27591B99F0593F50F466
:104AB000503E68F11A16F040A22F232F342F4427BE
:104AC000585FF3CF469537952795A795F0405395B6
:104AD000C9F77EF41F16BA0B620B730B840BBAF086
:104AE0009150A1F0FF0FBB1F661F771F881FC2F7F1
:104AF0000EC0BA0F621F731F841F48F48795779505
:104B00006795B795F7959E3F08F0B3CF9395880FBB
:104B100008F09927EE0F97958795089552DF58F082
:104B200080E891E009F49EEF53DF28F040E851E07F
:104B300059F45EEF09C042CF85CFE92FE07860DFFE
:104B400068F3092E052AC1F32617370748075907C6
:104B500038F00E2E07F8E02569F0E025E0640AC081
:104B6000EF6307F8009407FADB01B9019D01DC014E
:104B7000CA01AD01EF9343D032DF0AD05F915523D4
:104B800031F02BED3FE049E450FD49EC63CF08954F
:104B9000DF93DD27B92FBF7740E85FE316161706CE
:104BA00048075B0710F4D92FACD09F938F937F9366
:104BB0006F93AED0EEE8F1E07BD011DF2F913F9103
:104BC0004F915F919EDEDD2349F09058A2EA2AEDD5
:104BD0003FE049EC5FE3D0785D274DDFDF91FFCE0A
:104BE0000CD0FDCEF5DE40F0ECDE30F021F45F3F7E
:104BF00019F0DECE511127CFE1CE02DF98F39923D1
:104C0000C9F35523B1F3951B550BBB27AA27621790
:104C10007307840738F09F5F5F4F220F331F441FD5
:104C2000AA1FA9F333D00E2E3AF0E0E830D091500D
:104C30005040E695001CCAF729D0FE2F27D0660FFA
:104C4000771F881FBB1F261737074807AB07B0E839
:104C500009F0BB0B802DBF01FF2793585F4F2AF04F
:104C60009E3F510568F0A4CEEECE5F3FECF3983E38
:104C7000DCF3869577956795B795F7959F5FC9F7AC
:104C8000880F911D9695879597F90895E1E0660F35
:104C9000771F881FBB1F621773078407BA0720F0AE
:104CA000621B730B840BBA0BEE1F88F7E095089517
:104CB000DF93CF931F930F93FF92EF92DF927B01CD
:104CC0008C01689405C0DA2EEF011BDEFE01E8942A
:104CD000A5912591359145915591AEF3EF01CBDE2C
:104CE000FE019701A801DA9479F7DF90EF90FF9029
:104CF0000F911F91CF91DF910895D3DD08F48FEFCD
:104D000008959B01AC0160E070E080E89FE368CF0C
:104D10009B01AC01EACDA1E21A2EAA1BBB1BFD012F
:104D20000DC0AA1FBB1FEE1FFF1FA217B307E4078A
:104D3000F50720F0A21BB30BE40BF50B661F771FE2
:104D4000881F991F1A9469F76095709580959095C2
:104D50009B01AC01BD01CF010895EE0FFF1F881F1D
:104D60008BBF0790F691E02D199481E090E0F894C4
:104D700015C0DC0101C06D9341505040E0F708952B
:104D8000FB01DC014150504030F08D9101908019C1
:104D900019F40020B9F7881B990B0895F894FFCFF8
:104DA00000000000FC0F000000001E1100000000C9
:104DB000A818690C7F17F418B0178E17A2170000F7
:104DC0000000C50D4202020D310D2E0D3F02180DDF
:104DD0003B0239022B0D000000008508210B0A0B55
:104DE000440233023F02F201290239022E022B1E35
:104DF000FEFF00001E1E000000004E18F51765188B
:104E00004E696E74656E646F004E696E74656E6493
:104E10006F2052564C2D434E542D30312D5452009C
:104E20004E696E74656E646F2052564C2D434E541D
:104E30002D30312D5543004E696E74656E646F20C0
:104E400052564C2D5742432D303100576972656CD4
:104E500065737320436F6E74726F6C6C6572006C57
:104E6000783A0020006C793A0078313A0079313A8A
:044E7000000D0A0027
:020000023000CC
:10E000000D9489F10D94B2F10D94B2F10D94B2F129
:10E010000D94B2F10D94B2F10D94B2F10D94B2F1F0
:10E020000D94B2F10D94B2F10D94B2F10D94B2F1E0
:10E030000D94B2F10D94B2F10D94B2F10D94B2F1D0
:10E040000D94B2F10D94B2F10D94B2F10D94B2F1C0
:10E050000D94B2F10D94B2F10D94B2F10D94B2F1B0
:10E060000D94B2F10D94B2F10D94B2F10D94B2F1A0
:10E070000D94B2F10D94B2F10D94B2F10D94B2F190
:10E080000D94B2F10D94B2F10D94B2F10D94B2F180
:10E090000D94B2F10D94B2F10D94B2F10D94B2F170
:10E0A0000D94B2F10D94B2F10D94B2F10D94B2F160
:10E0B0000D94B2F10D94B2F10D94B2F10D94B2F150
:10E0C0000D94B2F10D94B2F10D94B2F10D94B2F140
:10E0D0000D94B2F10D94B2F10D94B2F10D94B2F130
:10E0E0000D94B2F141546D656761323536300041AF
:10E0F000726475696E6F206578706C6F72657220DE
:10E1000073746B3530305632206279204D4C530099
:10E11000426F6F746C6F616465723E004875683F52
:10E1200000436F6D70696C6564206F6E203D200048
:10E130004350552054797065202020203D20005FF9
:10E140005F4156525F415243485F5F3D2000415658
:10E1500052204C696243205665723D20004743437C
:10E160002056657273696F6E203D20004350552024
:10E1700049442020202020203D20004C6F7720663D
:10E18000757365202020203D20004869676820665F
:10E190007573652020203D200045787420667573D6
:10E1A00065202020203D20004C6F636B2066757336
:10E1B000652020203D20004D617220203720323024
:10E1C000313300312E362E3800342E332E350056A2
:10E1D00023202020414444522020206F7020636F70
:10E1E00064652020202020696E73747275637469E1
:10E1F0006F6E2061646472202020496E74657272B3
:10E20000757074006E6F20766563746F7200726A49
:10E210006D702020006A6D70200057686174207056
:10E220006F72743A00506F7274206E6F7420737541
:10E2300070706F72746564004D7573742062652030
:10E2400061206C6574746572002000577269747483
:10E25000696E672045450052656164696E672045B7
:10E26000450045452065727220636E743D00504F35
:10E27000525400303D5A65726F2061646472003FF1
:10E280003D43505520737461747300403D454550C3
:10E29000524F4D207465737400423D426C696E6B41
:10E2A000204C454400453D44756D70204545505215
:10E2B0004F4D00463D44756D7020464C415348001B
:10E2C000483D48656C70004C3D4C69737420492F83
:10E2D0004F20506F72747300513D51756974005234
:10E2E0003D44756D702052414D00563D73686F7707
:10E2F00020696E7465727275707420566563746FF0
:10E30000727300593D506F727420626C696E6B00BD
:10E310002A0011241FBECFEFD1E2DEBFCDBF01E046
:10E320000CBF12E0A0E0B2E0EEE1FDEF03E00BBFB6
:10E3300002C007900D92A030B107D9F712E0A0E01B
:10E34000B2E001C01D92AE30B107E1F70F9460F367
:10E350000D948DFE01E20EBF0FEF0DBF11241FBE05
:10E360000D9460F30D9400F020E030E040ED57E0B4
:10E3700005C0FA013197F1F72F5F3F4F2817390792
:10E38000C0F308959C01260F311DC901A0E0B0E043
:10E390002F5F3F4FABBFFC018791882361F08093D3
:10E3A000C6008091C00086FFFCCF8091C0008064D1
:10E3B0008093C000EACF08958DE08093C6008091DD
:10E3C000C00086FFFCCF8091C00080648093C000B5
:10E3D0008AE08093C6008091C00086FFFCCF8091C8
:10E3E000C00080648093C00008950F94C2F10F9420
:10E3F000DCF10895FC019081992359F09093C600B7
:10E400008091C00086FFFCCF8091C0008064809323
:10E41000C0003196992379F70895282F982F929567
:10E420009F70892F805D8A3308F0895F8093C600D2
:10E430008091C00086FFFCCF8091C00080648093F3
:10E44000C000822F8F70982F905D9A3308F0995FEB
:10E450009093C6008091C00086FFFCCF8091C000E1
:10E4600080648093C00008959C01FB01853691056E
:10E470001CF46330710594F0C90164E670E00F94F8
:10E480002EFE605D7F4F6093C6008091C00086FFC6
:10E49000FCCF8091C00080648093C0002B30310598
:10E4A00014F43297B4F0C90164E670E00F942EFEC4
:10E4B0006AE070E00F942EFE605D7F4F6093C600AF
:10E4C0008091C00086FFFCCF8091C0008064809363
:10E4D000C000C9016AE070E00F942EFEC0968093E0
:10E4E000C6008091C00086FFFCCF8091C000806490
:10E4F0008093C00008951F93182F8EE692EE60E07F
:10E500000F94C2F11093C6008091C00086FFFCCF2B
:10E510008091C00080648093C0000F94DCF11F9153
:10E5200008952F923F924F925F926F927F928F92B7
:10E530009F92AF92BF92CF92DF92EF92FF920F9392
:10E540001F93DF93CF93CDB7DEB762970FB6F894E2
:10E55000DEBF0FBECDBF382E622ECA01DB015C01CB
:10E560006D01772420E2222E2E010894411C511CBB
:10E570008BC081E0A81680E0B80681E0C80680E084
:10E58000D80628F0C601AA27BB270F940DF2BB2797
:10E59000AD2D9C2D8B2D0F940DF28A2D0F940DF225
:10E5A0002092C6008091C00086FFFCCF8091C00001
:10E5B00080648093C0009DE29093C6008091C0006B
:10E5C00086FFFCCF8091C00080648093C0002092C1
:10E5D000C6008091C00086FFFCCF8091C00080649F
:10E5E0008093C00019828601750188249924A1E0D6
:10E5F0003A1651F03A1620F0B2E03B1661F409C029
:10E600000BBFF701779007C0C7010F9477FE782EF4
:10E6100002C0F7017080872D0F940DF22092C60082
:10E620008091C00086FFFCCF8091C0008064809301
:10E63000C000872D8052F401EF70F0708F3520F408
:10E64000E40DF51D708204C0E40DF51D8EE280839B
:10E650000894E11CF11C011D111D0894811C911CE2
:10E6600090E18916910409F0C2CF80E190E0A0E02A
:10E67000B0E0A80EB91ECA1EDB1E198AC2010F9493
:10E68000FAF10F94DCF16A94662009F072CF629679
:10E690000FB6F894DEBF0FBECDBFCF91DF911F91B3
:10E6A0000F91FF90EF90DF90CF90BF90AF909F9031
:10E6B0008F907F906F905F904F903F902F90089534
:10E6C0002F923F924F925F926F927F928F929F9282
:10E6D000AF92BF92CF92DF92EF92FF920F931F9370
:10E6E000DF93CF93CDB7DEB7CD53D1400FB6F894BB
:10E6F000DEBF0FBECDBF01E20EBF0FEF0DBF94B75F
:10E70000F894A89514BE80916000886180936000A1
:10E7100010926000789493FF05C0E0910002F091A0
:10E7200001021995279A2F9A8091C00082608093E8
:10E73000C00080E18093C40088E18093C1000000A4
:10E74000EE24FF24870144E0A42EB12CCC24DD2448
:10E7500024C0C5010197F1F70894E11CF11C011DCB
:10E76000111D21E2E2162EE4F20620E0020720E06D
:10E77000120718F031E0C32ED12CC801B70127ECE5
:10E780003BE140E050E00F9441FE611571058105C9
:10E79000910519F485B1805885B98091C00087FD35
:10E7A00003C0C114D104A9F2A6014F5F5F4FC25E3E
:10E7B000DE4F59834883CE51D140C25EDE4F8881FF
:10E7C0009981CE51D140019711F00D9410FEC05D9A
:10E7D000DE4F19821882C053D14060E0C15DDE4F28
:10E7E0001882CF52D14088249924C35DDE4F19820C
:10E7F0001882CD52D140C05EDE4F188219821A8233
:10E800001B82C052D140CE5CDE4F188219821A8220
:10E810001B82C253D140EE24FF2487010BBFF701B6
:10E8200007911691C45CDE4F19830883CC53D14005
:10E830000D940BFEC25EDE4F28813981CE51D1404E
:10E840002130310509F52091C600C25EDE4F1982E4
:10E850001882CE51D14022C02F5F3F4F4F4F5F4FA4
:10E86000213082E138078AE7480780E0580780F0C6
:10E87000C45CDE4FE881F981CC53D140EF5FFF4F9C
:10E8800019F0EE27FF27099420E030E040E050E047
:10E890008091C00087FFE0CF2091C600C35DDE4FAE
:10E8A00048815981CD52D1404F5F5F4FC35DDE4FEC
:10E8B00059834883CD52D140213209F063C64A3092
:10E8C000510508F05FC60894811C911C53E0851621
:10E8D000910409F059C600E010E018C081E280936D
:10E8E000C6008091C00086FFFCCF8091C00080648C
:10E8F0008093C0002F5F3F4F2931310579F70F9486
:10E90000DCF10F5F1F4F0530110519F020E030E0FA
:10E91000E5CF10920A0210920B0210920C02109294
:10E920000D02109206021092070210920802109235
:10E930000902109202021092030210920402109235
:10E9400005028FEE90EE60E00F94F5F180E191EE1C
:10E9500060E00F94C2F18091C00087FFFCCF9091DE
:10E96000C600903608F09F759032B8F09093C600BC
:10E970008091C00086FFFCCF8091C00080648093AE
:10E98000C000A0E2A093C6008091C00086FFFCCF2B
:10E990008091C00080648093C000983409F4D7C18E
:10E9A0009934B8F4923409F459C1933458F490333B
:10E9B00019F1903308F4E3C59F33A1F1903409F0C5
:10E9C000DEC5BDC0953409F470C1963409F0D7C5D1
:10E9D00098C1923509F42BC2933538F49C3409F46C
:10E9E000F5C1913509F0CBC518C2963509F445C279
:10E9F000993509F0C4C567C483E792EE62E00F94CD
:10EA0000F5F110920602109207021092080210927D
:10EA1000090210920A0210920B0210920C0210923C
:10EA20000D0213C18FE792EE62E00F94F5F18FEEC5
:10EA300090EE60E00F94F5F181E291EE60E00F94CA
:10EA4000C2F187EB91EE60E00F94F5F180E391EE77
:10EA500060E00F94C2F184EE90EE60E00F94F5F167
:10EA60008FE391EE60E00F94C2F186E090E061E008
:10EA700070E00F9434F20F94DCF18DE591EE60E0DC
:10EA80000F94C2F189EC91EE60E00F94F5F18EE401
:10EA900091EE60E00F94C2F183EC91EE60E00F9490
:10EAA000F5F18CE691EE60E00F94C2F18EE10F94E7
:10EAB0000DF288E90F940DF281E00F940DF20F949E
:10EAC000DCF18BE791EE60E00F94C2F119E0E0E039
:10EAD000F0E010935700E4918E2F0F940DF20F94F5
:10EAE000DCF18AE891EE60E00F94C2F1E3E0F0E03F
:10EAF00010935700E4918E2F0F940DF20F94DCF1D8
:10EB000089E991EE60E00F94C2F1E2E0F0E0109349
:10EB10005700E4918E2F0F940DF20F94DCF188EAE8
:10EB200091EE60E00F94C2F1E1E0F0E01093570045
:10EB30001491812F0F940DF20F94DCF107CF8BE825
:10EB400092EE62E00F94F5F18BE492EE60E00F94A8
:10EB5000F5F10F94DCF100E010E019C0C8016F2D51
:10EB60000F947FFEFF2031F489E492EE60E00F9471
:10EB7000C2F10BC0F092C6008091C00086FFFCCFAE
:10EB80008091C00080648093C0000F5F1F4FC80158
:10EB900081519F41A0E0B0E0ABBFFC01F790BAE229
:10EBA000FB1621F0E2E000301E07C1F60F94DCF105
:10EBB0000F94DCF187E592EE60E00F94F5F10F948D
:10EBC000DCF1CC24DD2400E010E01EC0C8010F946D
:10EBD00077FEF82E882331F489E492EE60E00F94FA
:10EBE000C2F10BC08093C6008091C00086FFFCCFAD
:10EBF0008091C00080648093C000FE1419F00894D6
:10EC0000C11CD11C0F5F1F4FC80181519F41A0E063
:10EC1000B0E0ABBFFC01E790FAE2EF1621F022E092
:10EC20000030120799F60F94DCF10F94DCF182E6C4
:10EC300092EE60E00F94C2F1C60161E070E00F94C3
:10EC400034F20F94DCF10F94DCF110920202109276
:10EC50000302109204021092050278CE89E992EE26
